S01600004175746F6E6F6D6F7573204361722E737265639E
S11300000C942A000C9447000C9447000C9447006D
S11300100C9447000C9447000C9447000C94470040
S11300200C9447000C9447000C9447000C94470030
S11300300C9447000C9447000C9447000C94470020
S11300400C9447000C9447000C9447000C94470010
S11300500C94470011241FBECFE5D8E0DEBFCDBF0E
S113006010E0A0E6B0E0E2E1F1E002C005900D92FC
S1130070A036B107D9F720E0A0E6B0E001C01D9298
S1130080A036B207E1F70E9449000C9487000C9453
S1130090000081B3806281BB1DBC1CBC83EC99E071
S11300A097BD86BD82E88FBD8BE18EBD2FEA30E01F
S11300B03BBD2ABD4FEF5DE369E4415050406040D1
S11300C0E1F700C0000081E490E09BBD8ABD4FEFE2
S11300D05DE369E4415050406040E1F700C0000036
S11300E03BBD2ABD2FEF3DE349E421503040404061
S11300F0E1F700C000009BBD8ABD5FEF6DE389E4BA
S1130100515060408040E1F700C00000CFCFF89428
S1050110FFCF1B
S9030000FC
