:100000000C942A000C9447000C9447000C94470071
:100010000C9447000C9447000C9447000C94470044
:100020000C9447000C9447000C9447000C94470034
:100030000C9447000C9447000C9447000C94470024
:100040000C9447000C9447000C9447000C94470014
:100050000C94470011241FBECFE5D8E0DEBFCDBF12
:1000600010E0A0E6B0E0ECE1FBE002C005900D92EC
:10007000A639B107D9F720E0A6E9B0E001C01D928A
:10008000AC39B207E1F70E945D030C948C050C9427
:100090000000442319F04130C9F10895813091F0F6
:1000A00028F08230D9F0833029F108952AB381E015
:1000B00090E002C0880F991F6A95E2F7809582232D
:1000C0008ABB089527B381E090E002C0880F991F92
:1000D0006A95E2F78095822387BB089524B381E077
:1000E00090E002C0880F991F6A95E2F780958223FD
:1000F00084BB089521B381E090E002C0880F991F6E
:100100006A95E2F78095822381BB0895813089F05A
:1001100028F08230C9F0833011F108952AB381E0CC
:1001200090E002C0880F991F6A95E2F7822B8ABB84
:10013000089527B381E090E002C0880F991F6A9567
:10014000E2F7822B87BB089524B381E090E002C0E0
:10015000880F991F6A95E2F7822B84BB089521B31B
:1001600081E090E002C0880F991F6A95E2F7822B28
:1001700081BB0895442319F04130C9F108958130BD
:1001800091F028F08230D9F0833029F108952BB313
:1001900081E090E002C0880F991F6A95E2F7809590
:1001A00082238BBB089528B381E090E002C0880FC2
:1001B000991F6A95E2F78095822388BB089525B33D
:1001C00081E090E002C0880F991F6A95E2F7809560
:1001D000822385BB089522B381E090E002C0880F9E
:1001E000991F6A95E2F78095822382BB089581303A
:1001F00089F028F08230C9F0833011F108952BB3D3
:1002000081E090E002C0880F991F6A95E2F7822B87
:100210008BBB089528B381E090E002C0880F991F3E
:100220006A95E2F7822B88BB089525B381E090E0C0
:1002300002C0880F991F6A95E2F7822B85BB08954B
:1002400022B381E090E002C0880F991F6A95E2F71F
:10025000822B82BB0895843008F072C0683008F0A9
:100260006FC0423008F06CC0813001F130F0823054
:10027000B1F1833009F44CC00895413059F42AB3E8
:1002800081E090E002C0880F991F6A95E2F7822B07
:100290008ABB08952AB381E090E002C0880F991FBD
:1002A0006A95E2F7809582238ABB0895413059F41C
:1002B00027B381E090E002C0880F991F6A95E2F7AA
:1002C000822B87BB089527B381E090E002C0880F9E
:1002D000991F6A95E2F78095822387BB0895413084
:1002E00059F424B381E090E002C0880F991F6A9509
:1002F000E2F7822B84BB089524B381E090E002C032
:10030000880F991F6A95E2F78095822384BB089530
:10031000413059F421B381E090E002C0880F991F69
:100320006A95E2F7822B81BB089521B381E090E0CA
:1003300002C0880F991F6A95E2F78095822381BBDE
:100340000895843008F072C0683008F06FC0423001
:1003500008F06CC0813001F130F08230B1F18330AF
:1003600009F44CC00895413059F42BB381E090E07A
:1003700002C0880F991F6A95E2F7822B8BBB089504
:100380002BB381E090E002C0880F991F6A95E2F7D5
:10039000809582238BBB0895413059F428B381E0C6
:1003A00090E002C0880F991F6A95E2F7822B88BB04
:1003B000089528B381E090E002C0880F991F6A95E4
:1003C000E2F78095822388BB0895413059F425B324
:1003D00081E090E002C0880F991F6A95E2F7822BB6
:1003E00085BB089525B381E090E002C0880F991F76
:1003F0006A95E2F78095822385BB0895413059F4D0
:1004000022B381E090E002C0880F991F6A95E2F75D
:10041000822B82BB089522B381E090E002C0880F56
:10042000991F6A95E2F78095822382BB08958430F4
:1004300038F59FEF960F9E3F18F1813069F028F054
:10044000823089F08330B1F008956F3F19F48FEF57
:100450008ABB08951ABA08956F3F19F48FEF87BBCE
:10046000089517BA08956F3F19F48FEF84BB08956C
:1004700014BA08956F3F19F48FEF81BB089511BA34
:100480000895CF93C82F40E061E081E00E94BA0058
:1004900040E062E081E00E94BA0040E063E081E079
:1004A0000E94BA008BB39C2F907F8F70892B8BBBDF
:1004B00041E063E081E00E94BA008FE39FE1019791
:1004C000F1F700C0000040E063E081E00E94BA0064
:1004D00020E1C29FC00111249BB39F70892B8BBB6D
:1004E00041E063E081E00E94BA008FE39FE1019761
:1004F000F1F700C0000040E063E081E00E94BA0034
:100500008FE19EE40197F1F700C00000CF910895BC
:1005100041E061E081E00E94490041E062E081E069
:100520000E94490041E063E081E00E94490041E00F
:1005300064E080E00E94490041E065E080E00E94C4
:10054000490041E066E080E00E94490041E067E048
:1005500080E00E94490040E061E081E00E94BA0032
:1005600040E062E081E00E94BA0040E063E081E0A8
:100570000E94BA0040E064E080E00E94BA0040E0DF
:1005800065E080E00E94BA0040E066E080E00E9402
:10059000BA0040E067E080E00E94BA002FEF80E7F9
:1005A00092E0215080409040E1F700C0000083E3DA
:1005B0000E94410282E30E94410288E20E944102BD
:1005C00081E00E94410282E00E94410286E00E9496
:1005D00041028CE00E9441020895CF93C82F41E070
:1005E00061E081E00E94BA0040E062E081E00E94A8
:1005F000BA0040E063E081E00E94BA008BB39C2F18
:10060000907F8F70892B8BBB41E063E081E00E947B
:10061000BA008FE39FE10197F1F700C0000040E0CE
:1006200063E081E00E94BA0020E1C29FC001112472
:100630009BB39F70892B8BBB41E063E081E00E94FC
:10064000BA008FE39FE10197F1F700C0000040E09E
:1006500063E081E00E94BA00CF9108950F931F9349
:10066000CF938C01C0E003C00E94ED02CF5FF80180
:10067000EC0FF11D80818111F7CFCF911F910F9168
:100680000895CF93DF9300D0CDB7DEB790E899837C
:1006900090EC9A83E1E0F0E0EC0FFD1FE80FF11D14
:1006A0008081860F0E9441020F900F90DF91CF91C1
:1006B000089581E00E94410208950E94FC040E9476
:1006C000C7040E9441040E9488020E94D20411C003
:1006D0000E94590362E080E00E94410380E690E0BE
:1006E0000E942E030E9469040E94D2048431910565
:1006F00010F0449768F70E94590366E080E00E947A
:1007000041038DE690E00E942E030E9488042FEFA3
:100710008DE399E4215080409040E1F700C0000053
:100720000E9416052FEF87EA91E621508040904005
:10073000E1F700C000000E94D204909399008093DA
:1007400098000E940D052FEF8DE399E42150804021
:100750009040E1F700C000000E9404052FEF87EAF7
:1007600091E6215080409040E1F700C000000E94D7
:10077000D20490939700809396000E940D052FEF6E
:100780008DE399E4215080409040E1F700C00000E3
:100790002091980030919900809196009091970057
:1007A00082179307E0F48091980090919900459703
:1007B000B0F00E94590364E080E00E94410382E7A8
:1007C00090E00E942E030E94A7042FEF8BE49DE18E
:1007D000215080409040E1F700C0000076CF20918A
:1007E000960030919700809198009091990082171F
:1007F0009307E0F480919600909197004597B0F0B0
:100800000E94590364E080E00E9441038CE790E07D
:100810000E942E030E94B7042FEF8BE49DE121502C
:1008200080409040E1F700C000004FCF0E94590384
:1008300061E080E00E94410387E890E00E942E037F
:100840000E944A042FEF8BE792E9215080409040AC
:10085000E1F700C000000E94590364E080E00E94BC
:1008600041038CE790E00E942E030E94B7042FEF13
:100870008DE399E4215080409040E1F700C00000F2
:1008800024CF6FEF83E00E9417026FEF82E00E9497
:100890001702089541E060E082E00E94A10140E07B
:1008A00061E082E00E94A10141E062E082E00E94FA
:1008B000A10141E062E083E00E94A10140E063E029
:1008C00083E00E94A10141E061E083E00E94A10178
:1008D000089541E061E082E00E94A10140E060E013
:1008E00082E00E94A10141E062E082E00E94A10159
:1008F00040E062E083E00E94A10141E063E083E028
:100900000E94A10141E061E083E00E94A1010895FD
:1009100040E061E082E00E94A10140E060E082E00E
:100920000E94A10140E062E082E00E94A10140E05B
:1009300062E083E00E94A10140E063E083E00E9466
:10094000A10140E061E083E00E94A101089540E040
:1009500061E082E00E94A10141E060E082E00E944B
:10096000A10141E062E082E00E94A101089541E01E
:1009700062E083E00E94A10140E063E083E00E9426
:10098000A10141E061E083E00E94A101089541E0FE
:1009900060E080E00E942B0140E061E080E00E9486
:1009A0002B0108950E9436051DBC1CBC41E060E08F
:1009B00080E00E94A10185E38A95F1F7000040E004
:1009C00060E080E00E94A101C99BFECF0E944D051E
:1009D000C999FECF0E9457058CB59DB590939B0099
:1009E00080939A0080919A0090919B0064E770E058
:1009F0000E946405CB01089541E065E083E00E9418
:100A00002B011DBC1CBC08950E941F0587E293E2C8
:100A10000E9461050E94430508950E941F058FEB07
:100A20009DE50E9461050E94430508950E941F05EF
:100A300087ED9BE80E9461050E94430508958FB5EC
:100A40008E7F8FBD8FB582608FBD8EB588608EBD65
:100A50008EB580618EBD8FB58F7B8FBD8FB5806861
:100A60008FBD8FEF91EE97BD86BD08958FB58E7FB8
:100A70008FBD8FB58D7F8FBD8EB5877F8EBD8EB5B7
:100A80008F7E8EBD08958EB581608EBD8EB58D7FB3
:100A90008EBD8EB58B7F8EBD08958EB58E7F8EBD3B
:100AA0008EB582608EBD8EB58B7F8EBD08958EB55E
:100AB0008E7F8EBD8EB58D7F8EBD8EB58B7F8EBDAC
:100AC00008959BBD8ABD089597FB072E16F40094E8
:100AD00007D077FD09D00E94780507FC05D03EF4C9
:100AE000909581959F4F0895709561957F4F0895DA
:100AF000AA1BBB1B51E107C0AA1FBB1FA617B70744
:100B000010F0A61BB70B881F991F5A95A9F780955F
:0C0B10009095BC01CD010895F894FFCF32
:100B1C004D6F766520466F72776172640053746F07
:100B2C0070005475726E204C656674005475726E4C
:100B3C00205269676874004D6F7665204261636B63
:060B4C00776172640000F5
:00000001FF
